{
  "_format": "hh3-artifact-1",
  "contractName": "Votechain",
  "sourceName": "contracts/Election.sol",
  "abi": [
    {
      "inputs": [
        {
          "internalType": "string",
          "name": "_electionId",
          "type": "string"
        },
        {
          "internalType": "string",
          "name": "_candidateId",
          "type": "string"
        },
        {
          "internalType": "string",
          "name": "_userId",
          "type": "string"
        }
      ],
      "name": "castVote",
      "outputs": [],
      "stateMutability": "nonpayable",
      "type": "function"
    },
    {
      "inputs": [
        {
          "internalType": "string",
          "name": "_electionId",
          "type": "string"
        },
        {
          "internalType": "string",
          "name": "_candidateId",
          "type": "string"
        }
      ],
      "name": "getVotesForCandidate",
      "outputs": [
        {
          "internalType": "uint256",
          "name": "",
          "type": "uint256"
        }
      ],
      "stateMutability": "view",
      "type": "function"
    },
    {
      "inputs": [
        {
          "internalType": "string",
          "name": "",
          "type": "string"
        },
        {
          "internalType": "string",
          "name": "",
          "type": "string"
        }
      ],
      "name": "hasVoted",
      "outputs": [
        {
          "internalType": "bool",
          "name": "",
          "type": "bool"
        }
      ],
      "stateMutability": "view",
      "type": "function"
    },
    {
      "inputs": [
        {
          "internalType": "string",
          "name": "",
          "type": "string"
        },
        {
          "internalType": "string",
          "name": "",
          "type": "string"
        }
      ],
      "name": "votes",
      "outputs": [
        {
          "internalType": "uint256",
          "name": "",
          "type": "uint256"
        }
      ],
      "stateMutability": "view",
      "type": "function"
    }
  ],
  "bytecode": "0x608060405234801561000f575f80fd5b506107808061001d5f395ff3fe608060405234801561000f575f80fd5b506004361061004a575f3560e01c806366a038bb1461004e5780639e75e9191461007e578063cf95a070146100ae578063d393120f146100ca575b5f80fd5b6100686004803603810190610063919061045e565b6100fa565b60405161007591906104ee565b60405180910390f35b6100986004803603810190610093919061045e565b610154565b6040516100a5919061051f565b60405180910390f35b6100c860048036038101906100c39190610538565b610197565b005b6100e460048036038101906100df919061045e565b6102c2565b6040516100f1919061051f565b60405180910390f35b600182805160208101820180518482526020830160208501208183528095505050505050818051602081018201805184825260208301602085012081835280955050505050505f915091509054906101000a900460ff1681565b5f80836040516101649190610648565b9081526020016040518091039020826040516101809190610648565b908152602001604051809103902054905092915050565b6001836040516101a79190610648565b9081526020016040518091039020816040516101c39190610648565b90815260200160405180910390205f9054906101000a900460ff161561021e576040517f08c379a0000000000000000000000000000000000000000000000000000000008152600401610215906106b8565b60405180910390fd5b5f8360405161022d9190610648565b9081526020016040518091039020826040516102499190610648565b90815260200160405180910390205f81548092919061026790610703565b91905055506001808460405161027d9190610648565b9081526020016040518091039020826040516102999190610648565b90815260200160405180910390205f6101000a81548160ff021916908315150217905550505050565b5f82805160208101820180518482526020830160208501208183528095505050505050818051602081018201805184825260208301602085012081835280955050505050505f91509150505481565b5f604051905090565b5f80fd5b5f80fd5b5f80fd5b5f80fd5b5f601f19601f8301169050919050565b7f4e487b71000000000000000000000000000000000000000000000000000000005f52604160045260245ffd5b6103708261032a565b810181811067ffffffffffffffff8211171561038f5761038e61033a565b5b80604052505050565b5f6103a1610311565b90506103ad8282610367565b919050565b5f67ffffffffffffffff8211156103cc576103cb61033a565b5b6103d58261032a565b9050602081019050919050565b828183375f83830152505050565b5f6104026103fd846103b2565b610398565b90508281526020810184848401111561041e5761041d610326565b5b6104298482856103e2565b509392505050565b5f82601f83011261044557610444610322565b5b81356104558482602086016103f0565b91505092915050565b5f80604083850312156104745761047361031a565b5b5f83013567ffffffffffffffff8111156104915761049061031e565b5b61049d85828601610431565b925050602083013567ffffffffffffffff8111156104be576104bd61031e565b5b6104ca85828601610431565b9150509250929050565b5f8115159050919050565b6104e8816104d4565b82525050565b5f6020820190506105015f8301846104df565b92915050565b5f819050919050565b61051981610507565b82525050565b5f6020820190506105325f830184610510565b92915050565b5f805f6060848603121561054f5761054e61031a565b5b5f84013567ffffffffffffffff81111561056c5761056b61031e565b5b61057886828701610431565b935050602084013567ffffffffffffffff8111156105995761059861031e565b5b6105a586828701610431565b925050604084013567ffffffffffffffff8111156105c6576105c561031e565b5b6105d286828701610431565b9150509250925092565b5f81519050919050565b5f81905092915050565b5f5b8381101561060d5780820151818401526020810190506105f2565b5f8484015250505050565b5f610622826105dc565b61062c81856105e6565b935061063c8185602086016105f0565b80840191505092915050565b5f6106538284610618565b915081905092915050565b5f82825260208201905092915050565b7f566f742064656a6120696e7265676973747261742100000000000000000000005f82015250565b5f6106a260158361065e565b91506106ad8261066e565b602082019050919050565b5f6020820190508181035f8301526106cf81610696565b9050919050565b7f4e487b71000000000000000000000000000000000000000000000000000000005f52601160045260245ffd5b5f61070d82610507565b91507fffffffffffffffffffffffffffffffffffffffffffffffffffffffffffffffff820361073f5761073e6106d6565b5b60018201905091905056fea2646970667358221220f0b820c3a1aed8870149d520ab42f3dc5a545593f1101d0e0932c3ac0b609ca164736f6c63430008180033",
  "linkReferences": {},
  "deployedLinkReferences": {},
  "immutableReferences": {},
  "inputSourceName": "project/contracts/Election.sol",
  "buildInfoId": "solc-0_8_24-d8f7268c82b419980968b748bd565689fb38206e"
}